{
  "contractName": "MayoralToken",
  "abi": [
    {
      "inputs": [
        {
          "internalType": "string",
          "name": "_name",
          "type": "string"
        },
        {
          "internalType": "string",
          "name": "_symbol",
          "type": "string"
        },
        {
          "internalType": "uint8",
          "name": "_decimal",
          "type": "uint8"
        },
        {
          "internalType": "uint256",
          "name": "_supply",
          "type": "uint256"
        }
      ],
      "stateMutability": "nonpayable",
      "type": "constructor"
    },
    {
      "anonymous": false,
      "inputs": [
        {
          "indexed": true,
          "internalType": "address",
          "name": "_from",
          "type": "address"
        }
      ],
      "name": "PAUSE",
      "type": "event"
    },
    {
      "anonymous": false,
      "inputs": [
        {
          "indexed": true,
          "internalType": "address",
          "name": "_from",
          "type": "address"
        }
      ],
      "name": "UNPAUSE",
      "type": "event"
    },
    {
      "anonymous": false,
      "inputs": [
        {
          "indexed": true,
          "internalType": "address",
          "name": "_from",
          "type": "address"
        },
        {
          "indexed": true,
          "internalType": "address",
          "name": "_to",
          "type": "address"
        },
        {
          "indexed": false,
          "internalType": "uint256",
          "name": "_value",
          "type": "uint256"
        }
      ],
      "name": "approve",
      "type": "event"
    },
    {
      "anonymous": false,
      "inputs": [
        {
          "indexed": true,
          "internalType": "address",
          "name": "_from",
          "type": "address"
        },
        {
          "indexed": false,
          "internalType": "uint256",
          "name": "_value",
          "type": "uint256"
        }
      ],
      "name": "burn",
      "type": "event"
    },
    {
      "anonymous": false,
      "inputs": [
        {
          "indexed": true,
          "internalType": "address",
          "name": "_from",
          "type": "address"
        },
        {
          "indexed": true,
          "internalType": "address",
          "name": "_to",
          "type": "address"
        },
        {
          "indexed": false,
          "internalType": "uint256",
          "name": "_value",
          "type": "uint256"
        }
      ],
      "name": "decreasedallowance",
      "type": "event"
    },
    {
      "anonymous": false,
      "inputs": [
        {
          "indexed": true,
          "internalType": "address",
          "name": "_from",
          "type": "address"
        },
        {
          "indexed": true,
          "internalType": "address",
          "name": "_to",
          "type": "address"
        },
        {
          "indexed": false,
          "internalType": "uint256",
          "name": "_value",
          "type": "uint256"
        }
      ],
      "name": "increasedallowance",
      "type": "event"
    },
    {
      "anonymous": false,
      "inputs": [
        {
          "indexed": true,
          "internalType": "address",
          "name": "_from",
          "type": "address"
        },
        {
          "indexed": false,
          "internalType": "uint256",
          "name": "_value",
          "type": "uint256"
        }
      ],
      "name": "mint",
      "type": "event"
    },
    {
      "anonymous": false,
      "inputs": [
        {
          "indexed": true,
          "internalType": "address",
          "name": "_to",
          "type": "address"
        }
      ],
      "name": "renounceownership",
      "type": "event"
    },
    {
      "anonymous": false,
      "inputs": [
        {
          "indexed": true,
          "internalType": "address",
          "name": "_from",
          "type": "address"
        },
        {
          "indexed": true,
          "internalType": "address",
          "name": "_to",
          "type": "address"
        },
        {
          "indexed": false,
          "internalType": "uint256",
          "name": "_value",
          "type": "uint256"
        }
      ],
      "name": "transfer",
      "type": "event"
    },
    {
      "anonymous": false,
      "inputs": [
        {
          "indexed": true,
          "internalType": "address",
          "name": "_to",
          "type": "address"
        },
        {
          "indexed": false,
          "internalType": "uint256",
          "name": "_value",
          "type": "uint256"
        }
      ],
      "name": "withdraw",
      "type": "event"
    },
    {
      "inputs": [],
      "name": "PauseContract",
      "outputs": [
        {
          "internalType": "bool",
          "name": "success",
          "type": "bool"
        }
      ],
      "stateMutability": "nonpayable",
      "type": "function"
    },
    {
      "inputs": [],
      "name": "UnpauseContract",
      "outputs": [
        {
          "internalType": "bool",
          "name": "success",
          "type": "bool"
        }
      ],
      "stateMutability": "nonpayable",
      "type": "function"
    },
    {
      "inputs": [],
      "name": "ShowOwner",
      "outputs": [
        {
          "internalType": "address",
          "name": "",
          "type": "address"
        }
      ],
      "stateMutability": "view",
      "type": "function"
    },
    {
      "inputs": [],
      "name": "ReturnName",
      "outputs": [
        {
          "internalType": "string",
          "name": "",
          "type": "string"
        }
      ],
      "stateMutability": "view",
      "type": "function"
    },
    {
      "inputs": [],
      "name": "ReturnSymbol",
      "outputs": [
        {
          "internalType": "string",
          "name": "",
          "type": "string"
        }
      ],
      "stateMutability": "view",
      "type": "function"
    },
    {
      "inputs": [],
      "name": "ReturnDecimal",
      "outputs": [
        {
          "internalType": "uint256",
          "name": "",
          "type": "uint256"
        }
      ],
      "stateMutability": "view",
      "type": "function"
    },
    {
      "inputs": [],
      "name": "ShowTotalSupply",
      "outputs": [
        {
          "internalType": "uint256",
          "name": "",
          "type": "uint256"
        }
      ],
      "stateMutability": "view",
      "type": "function"
    },
    {
      "inputs": [
        {
          "internalType": "address",
          "name": "_recieve",
          "type": "address"
        },
        {
          "internalType": "uint256",
          "name": "_value",
          "type": "uint256"
        }
      ],
      "name": "SetAllowance",
      "outputs": [
        {
          "internalType": "bool",
          "name": "success",
          "type": "bool"
        }
      ],
      "stateMutability": "nonpayable",
      "type": "function"
    },
    {
      "inputs": [
        {
          "internalType": "address",
          "name": "_recieve",
          "type": "address"
        },
        {
          "internalType": "uint256",
          "name": "_value",
          "type": "uint256"
        }
      ],
      "name": "IncreaseAllowance",
      "outputs": [
        {
          "internalType": "bool",
          "name": "success",
          "type": "bool"
        }
      ],
      "stateMutability": "nonpayable",
      "type": "function"
    },
    {
      "inputs": [
        {
          "internalType": "address",
          "name": "_recieve",
          "type": "address"
        },
        {
          "internalType": "uint256",
          "name": "_value",
          "type": "uint256"
        }
      ],
      "name": "DecreaseAllowance",
      "outputs": [
        {
          "internalType": "bool",
          "name": "success",
          "type": "bool"
        }
      ],
      "stateMutability": "nonpayable",
      "type": "function"
    },
    {
      "inputs": [
        {
          "internalType": "address",
          "name": "_from",
          "type": "address"
        },
        {
          "internalType": "address",
          "name": "_to",
          "type": "address"
        },
        {
          "internalType": "uint256",
          "name": "_value",
          "type": "uint256"
        }
      ],
      "name": "Transfer",
      "outputs": [
        {
          "internalType": "bool",
          "name": "success",
          "type": "bool"
        }
      ],
      "stateMutability": "nonpayable",
      "type": "function"
    },
    {
      "inputs": [
        {
          "internalType": "address",
          "name": "_who",
          "type": "address"
        }
      ],
      "name": "CheckBalance",
      "outputs": [
        {
          "internalType": "uint256",
          "name": "",
          "type": "uint256"
        }
      ],
      "stateMutability": "view",
      "type": "function"
    },
    {
      "inputs": [
        {
          "internalType": "address",
          "name": "_from",
          "type": "address"
        },
        {
          "internalType": "uint256",
          "name": "_value",
          "type": "uint256"
        }
      ],
      "name": "Mint",
      "outputs": [
        {
          "internalType": "bool",
          "name": "success",
          "type": "bool"
        }
      ],
      "stateMutability": "nonpayable",
      "type": "function"
    },
    {
      "inputs": [
        {
          "internalType": "address",
          "name": "_from",
          "type": "address"
        },
        {
          "internalType": "uint256",
          "name": "_value",
          "type": "uint256"
        }
      ],
      "name": "Burn",
      "outputs": [
        {
          "internalType": "bool",
          "name": "success",
          "type": "bool"
        }
      ],
      "stateMutability": "nonpayable",
      "type": "function"
    },
    {
      "inputs": [
        {
          "internalType": "address payable",
          "name": "_to",
          "type": "address"
        },
        {
          "internalType": "uint256",
          "name": "_value",
          "type": "uint256"
        }
      ],
      "name": "Withdraw",
      "outputs": [
        {
          "internalType": "bool",
          "name": "success",
          "type": "bool"
        }
      ],
      "stateMutability": "nonpayable",
      "type": "function"
    },
    {
      "inputs": [
        {
          "internalType": "address",
          "name": "_to",
          "type": "address"
        }
      ],
      "name": "Renounce",
      "outputs": [
        {
          "internalType": "bool",
          "name": "success",
          "type": "bool"
        }
      ],
      "stateMutability": "nonpayable",
      "type": "function"
    },
    {
      "inputs": [
        {
          "internalType": "address",
          "name": "_to",
          "type": "address"
        }
      ],
      "name": "CheckAllowance",
      "outputs": [
        {
          "internalType": "uint256",
          "name": "",
          "type": "uint256"
        }
      ],
      "stateMutability": "view",
      "type": "function"
    }
  ],
  "bytecode": "0x60806040523480156200001157600080fd5b5060405162002b8538038062002b858339818101604052810190620000379190620006c3565b62000070336200006484600a6200004f9190620008f6565b84620001ef60201b620016891790919060201c565b6200023860201b60201c565b503373ffffffffffffffffffffffffffffffffffffffff167f40c10f19c047ae7dfa66d6312b683d2ea3dfbcb4159e96b967c5f4b0a86f284282604051620000b9919062000958565b60405180910390a28360029080519060200190620000d9929190620003fd565b508260039080519060200190620000f2929190620003fd565b5081600460006101000a81548160ff021916908360ff16021790555033600160006101000a81548173ffffffffffffffffffffffffffffffffffffffff021916908373ffffffffffffffffffffffffffffffffffffffff16021790555060005460056000600160009054906101000a900473ffffffffffffffffffffffffffffffffffffffff1673ffffffffffffffffffffffffffffffffffffffff1673ffffffffffffffffffffffffffffffffffffffff168152602001908152602001600020819055506001600760006101000a81548160ff02191690836001811115620001e057620001df62000975565b5b02179055505050505062000be0565b6000808284620002009190620009a4565b905060008414806200021e57508284826200021c919062000a34565b145b6200022e576200022d62000a6c565b5b8091505092915050565b60003373ffffffffffffffffffffffffffffffffffffffff16600160009054906101000a9050505060011515600460019054906101000a900460ff16151514156200028257600080fd5b600073ffffffffffffffffffffffffffffffffffffffff168373ffffffffffffffffffffffffffffffffffffffff161415620002bd57600080fd5b600082141562000304576040517f08c379a0000000000000000000000000000000000000000000000000000000008152600401620002fb9062000afc565b60405180910390fd5b6200032082600054620003cc60201b620016ca1790919060201c565b6000819055506200037f82600560008673ffffffffffffffffffffffffffffffffffffffff1673ffffffffffffffffffffffffffffffffffffffff16815260200190815260200160002054620003cc60201b620016ca1790919060201c565b600560008573ffffffffffffffffffffffffffffffffffffffff1673ffffffffffffffffffffffffffffffffffffffff168152602001908152602001600020819055506001905092915050565b6000808284620003dd919062000b1e565b905083811015620003f357620003f262000a6c565b5b8091505092915050565b8280546200040b9062000baa565b90600052602060002090601f0160209004810192826200042f57600085556200047b565b82601f106200044a57805160ff19168380011785556200047b565b828001600101855582156200047b579182015b828111156200047a5782518255916020019190600101906200045d565b5b5090506200048a91906200048e565b5090565b5b80821115620004a95760008160009055506001016200048f565b5090565b6000604051905090565b600080fd5b600080fd5b600080fd5b600080fd5b6000601f19601f8301169050919050565b7f4e487b7100000000000000000000000000000000000000000000000000000000600052604160045260246000fd5b6200051682620004cb565b810181811067ffffffffffffffff82111715620005385762000537620004dc565b5b80604052505050565b60006200054d620004ad565b90506200055b82826200050b565b919050565b600067ffffffffffffffff8211156200057e576200057d620004dc565b5b6200058982620004cb565b9050602081019050919050565b60005b83811015620005b657808201518184015260208101905062000599565b83811115620005c6576000848401525b50505050565b6000620005e3620005dd8462000560565b62000541565b905082815260208101848484011115620006025762000601620004c6565b5b6200060f84828562000596565b509392505050565b600082601f8301126200062f576200062e620004c1565b5b815162000641848260208601620005cc565b91505092915050565b600060ff82169050919050565b62000662816200064a565b81146200066e57600080fd5b50565b600081519050620006828162000657565b92915050565b6000819050919050565b6200069d8162000688565b8114620006a957600080fd5b50565b600081519050620006bd8162000692565b92915050565b60008060008060808587031215620006e057620006df620004b7565b5b600085015167ffffffffffffffff811115620007015762000700620004bc565b5b6200070f8782880162000617565b945050602085015167ffffffffffffffff811115620007335762000732620004bc565b5b620007418782880162000617565b9350506040620007548782880162000671565b92505060606200076787828801620006ac565b91505092959194509250565b7f4e487b7100000000000000000000000000000000000000000000000000000000600052601160045260246000fd5b60008160011c9050919050565b6000808291508390505b60018511156200080157808604811115620007d957620007d862000773565b5b6001851615620007e95780820291505b8081029050620007f985620007a2565b9450620007b9565b94509492505050565b6000826200081c5760019050620008ef565b816200082c5760009050620008ef565b8160018114620008455760028114620008505762000886565b6001915050620008ef565b60ff84111562000865576200086462000773565b5b8360020a9150848211156200087f576200087e62000773565b5b50620008ef565b5060208310610133831016604e8410600b8410161715620008c05782820a905083811115620008ba57620008b962000773565b5b620008ef565b620008cf8484846001620007af565b92509050818404811115620008e957620008e862000773565b5b81810290505b9392505050565b6000620009038262000688565b915062000910836200064a565b92506200093f7fffffffffffffffffffffffffffffffffffffffffffffffffffffffffffffffff84846200080a565b905092915050565b620009528162000688565b82525050565b60006020820190506200096f600083018462000947565b92915050565b7f4e487b7100000000000000000000000000000000000000000000000000000000600052602160045260246000fd5b6000620009b18262000688565b9150620009be8362000688565b9250817fffffffffffffffffffffffffffffffffffffffffffffffffffffffffffffffff0483118215151615620009fa57620009f962000773565b5b828202905092915050565b7f4e487b7100000000000000000000000000000000000000000000000000000000600052601260045260246000fd5b600062000a418262000688565b915062000a4e8362000688565b92508262000a615762000a6062000a05565b5b828204905092915050565b7f4e487b7100000000000000000000000000000000000000000000000000000000600052600160045260246000fd5b600082825260208201905092915050565b7f596f75206861766520696e70757420616e20696e76616c696420616d6f756e74600082015250565b600062000ae460208362000a9b565b915062000af18262000aac565b602082019050919050565b6000602082019050818103600083015262000b178162000ad5565b9050919050565b600062000b2b8262000688565b915062000b388362000688565b9250827fffffffffffffffffffffffffffffffffffffffffffffffffffffffffffffffff0382111562000b705762000b6f62000773565b5b828201905092915050565b7f4e487b7100000000000000000000000000000000000000000000000000000000600052602260045260246000fd5b6000600282049050600182168062000bc357607f821691505b6020821081141562000bda5762000bd962000b7b565b5b50919050565b611f958062000bf06000396000f3fe608060405234801561001057600080fd5b506004361061010b5760003560e01c806379d968de116100a25780639d2e2422116100715780639d2e242214610308578063ad1bef1e14610326578063cc16f5db14610344578063dafb0d2214610374578063ddf252ad146103925761010b565b806379d968de1461026c57806383995b9a1461028a578063884edad9146102ba57806396ce267a146102ea5761010b565b80631c8108b1116100de5780631c8108b1146101be5780632e4d59c4146101dc5780633e7279a31461020c5780637215b96d1461023c5761010b565b80630bf4532c146101105780630e7f2be71461012e5780630f6798a51461015e5780631963a6931461018e575b600080fd5b6101186103c2565b6040516101259190611736565b60405180910390f35b610148600480360381019061014391906117e0565b6103dc565b604051610155919061183b565b60405180910390f35b610178600480360381019061017391906117e0565b6105dd565b604051610185919061183b565b60405180910390f35b6101a860048036038101906101a391906117e0565b61075e565b6040516101b5919061183b565b60405180910390f35b6101c66109e0565b6040516101d3919061183b565b60405180910390f35b6101f660048036038101906101f19190611856565b610ae8565b6040516102039190611736565b60405180910390f35b610226600480360381019061022191906117e0565b610b31565b604051610233919061183b565b60405180910390f35b61025660048036038101906102519190611856565b610d26565b6040516102639190611736565b60405180910390f35b610274610dce565b604051610281919061183b565b60405180910390f35b6102a4600480360381019061029f9190611856565b610edf565b6040516102b1919061183b565b60405180910390f35b6102d460048036038101906102cf91906118c1565b611004565b6040516102e1919061183b565b60405180910390f35b6102f26110d8565b6040516102ff9190611910565b60405180910390f35b610310611102565b60405161031d91906119c4565b60405180910390f35b61032e611194565b60405161033b91906119c4565b60405180910390f35b61035e600480360381019061035991906117e0565b611226565b60405161036b919061183b565b60405180910390f35b61037c6113d1565b6040516103899190611736565b60405180910390f35b6103ac60048036038101906103a791906119e6565b6113da565b6040516103b9919061183b565b60405180910390f35b6000600460009054906101000a900460ff1660ff16905090565b60003373ffffffffffffffffffffffffffffffffffffffff16600160009054906101000a9050505060011515600460019054906101000a900460ff161515141561042557600080fd5b600073ffffffffffffffffffffffffffffffffffffffff168373ffffffffffffffffffffffffffffffffffffffff16141561045f57600080fd5b6104ee82600660003373ffffffffffffffffffffffffffffffffffffffff1673ffffffffffffffffffffffffffffffffffffffff16815260200190815260200160002060008673ffffffffffffffffffffffffffffffffffffffff1673ffffffffffffffffffffffffffffffffffffffff168152602001908152602001600020546116f690919063ffffffff16565b600660003373ffffffffffffffffffffffffffffffffffffffff1673ffffffffffffffffffffffffffffffffffffffff16815260200190815260200160002060008573ffffffffffffffffffffffffffffffffffffffff1673ffffffffffffffffffffffffffffffffffffffff168152602001908152602001600020819055508273ffffffffffffffffffffffffffffffffffffffff163373ffffffffffffffffffffffffffffffffffffffff167fbcbc2f27353563a7798372a0dfb7f4fc97a4424532d94ac5727c2b6d8445ba11846040516105cb9190611736565b60405180910390a36001905092915050565b60003373ffffffffffffffffffffffffffffffffffffffff16600160009054906101000a9050505060011515600460019054906101000a900460ff161515141561062657600080fd5b600073ffffffffffffffffffffffffffffffffffffffff168373ffffffffffffffffffffffffffffffffffffffff16141561066057600080fd5b60008214156106a4576040517f08c379a000000000000000000000000000000000000000000000000000000000815260040161069b90611a85565b60405180910390fd5b6106b9826000546116ca90919063ffffffff16565b60008190555061071182600560008673ffffffffffffffffffffffffffffffffffffffff1673ffffffffffffffffffffffffffffffffffffffff168152602001908152602001600020546116ca90919063ffffffff16565b600560008573ffffffffffffffffffffffffffffffffffffffff1673ffffffffffffffffffffffffffffffffffffffff168152602001908152602001600020819055506001905092915050565b60003373ffffffffffffffffffffffffffffffffffffffff16600160009054906101000a9050505060011515600460019054906101000a900460ff16151514156107a757600080fd5b600073ffffffffffffffffffffffffffffffffffffffff168373ffffffffffffffffffffffffffffffffffffffff1614156107e157600080fd5b81600560003373ffffffffffffffffffffffffffffffffffffffff1673ffffffffffffffffffffffffffffffffffffffff1681526020019081526020016000205411610862576040517f08c379a000000000000000000000000000000000000000000000000000000000815260040161085990611af1565b60405180910390fd5b6108f182600660003373ffffffffffffffffffffffffffffffffffffffff1673ffffffffffffffffffffffffffffffffffffffff16815260200190815260200160002060008673ffffffffffffffffffffffffffffffffffffffff1673ffffffffffffffffffffffffffffffffffffffff168152602001908152602001600020546116ca90919063ffffffff16565b600660003373ffffffffffffffffffffffffffffffffffffffff1673ffffffffffffffffffffffffffffffffffffffff16815260200190815260200160002060008573ffffffffffffffffffffffffffffffffffffffff1673ffffffffffffffffffffffffffffffffffffffff168152602001908152602001600020819055508273ffffffffffffffffffffffffffffffffffffffff163373ffffffffffffffffffffffffffffffffffffffff167fe43a4c0c8b584625b0f915e64cd33950433cbbc5e42b3335ca72d313be300aec846040516109ce9190611736565b60405180910390a36001905092915050565b60003373ffffffffffffffffffffffffffffffffffffffff16600160009054906101000a90505050600460019054906101000a900460ff1615610a58576040517f08c379a0000000000000000000000000000000000000000000000000000000008152600401610a4f90611b5d565b60405180910390fd5b6001600460016101000a81548160ff0219169083151502179055506000600760006101000a81548160ff02191690836001811115610a9957610a98611b7d565b5b02179055503373ffffffffffffffffffffffffffffffffffffffff167f1cfe193b29391a1d2f2f7fd0c264c837840c1cdee88a7b789c882035829b252560405160405180910390a26001905090565b6000600560008373ffffffffffffffffffffffffffffffffffffffff1673ffffffffffffffffffffffffffffffffffffffff168152602001908152602001600020549050919050565b60003373ffffffffffffffffffffffffffffffffffffffff16600160009054906101000a9050505060011515600460019054906101000a900460ff1615151415610b7a57600080fd5b81600560003373ffffffffffffffffffffffffffffffffffffffff1673ffffffffffffffffffffffffffffffffffffffff168152602001908152602001600020541015610bfc576040517f08c379a0000000000000000000000000000000000000000000000000000000008152600401610bf390611af1565b60405180910390fd5b600073ffffffffffffffffffffffffffffffffffffffff168373ffffffffffffffffffffffffffffffffffffffff161415610c3657600080fd5b81600660003373ffffffffffffffffffffffffffffffffffffffff1673ffffffffffffffffffffffffffffffffffffffff16815260200190815260200160002060008573ffffffffffffffffffffffffffffffffffffffff1673ffffffffffffffffffffffffffffffffffffffff168152602001908152602001600020819055508273ffffffffffffffffffffffffffffffffffffffff163373ffffffffffffffffffffffffffffffffffffffff167fe1f21c67180317619fcafa578cb44275002011f9ad81f61220c62be2c441533684604051610d149190611736565b60405180910390a36001905092915050565b600060066000600160009054906101000a900473ffffffffffffffffffffffffffffffffffffffff1673ffffffffffffffffffffffffffffffffffffffff1673ffffffffffffffffffffffffffffffffffffffff16815260200190815260200160002060008373ffffffffffffffffffffffffffffffffffffffff1673ffffffffffffffffffffffffffffffffffffffff168152602001908152602001600020549050919050565b60003373ffffffffffffffffffffffffffffffffffffffff16600160009054906101000a905050506001600460016101000a81548160ff0219169083151502179055610e4f576040517f08c379a0000000000000000000000000000000000000000000000000000000008152600401610e4690611bf8565b60405180910390fd5b6000600460016101000a81548160ff0219169083151502179055506001600760006101000a81548160ff02191690836001811115610e9057610e8f611b7d565b5b02179055503373ffffffffffffffffffffffffffffffffffffffff167fe29de528965d2fe2a06aafe325d5754d834348a4703d1a8366ba761643957bb360405160405180910390a26001905090565b60003373ffffffffffffffffffffffffffffffffffffffff16600160009054906101000a90505050600073ffffffffffffffffffffffffffffffffffffffff168273ffffffffffffffffffffffffffffffffffffffff161415610f77576040517f08c379a0000000000000000000000000000000000000000000000000000000008152600401610f6e90611c64565b60405180910390fd5b81600160006101000a81548173ffffffffffffffffffffffffffffffffffffffff021916908373ffffffffffffffffffffffffffffffffffffffff1602179055508173ffffffffffffffffffffffffffffffffffffffff167f11bd3ae03dffc45908a76d712d26ce2ed3389fd9a74b3e1468fcaa88557fb37360405160405180910390a260019050919050565b60003373ffffffffffffffffffffffffffffffffffffffff16600160009054906101000a905050504782111561103957600080fd5b8273ffffffffffffffffffffffffffffffffffffffff166108fc839081150290604051600060405180830381858888f1935050505015801561107f573d6000803e3d6000fd5b508273ffffffffffffffffffffffffffffffffffffffff167ff3fef3a3f44f9c277339b67d54f015748bd8d6b77a985b0ab6e71126b018c34a836040516110c69190611736565b60405180910390a26001905092915050565b6000600160009054906101000a900473ffffffffffffffffffffffffffffffffffffffff16905090565b60606003805461111190611cb3565b80601f016020809104026020016040519081016040528092919081815260200182805461113d90611cb3565b801561118a5780601f1061115f5761010080835404028352916020019161118a565b820191906000526020600020905b81548152906001019060200180831161116d57829003601f168201915b5050505050905090565b6060600280546111a390611cb3565b80601f01602080910402602001604051908101604052809291908181526020018280546111cf90611cb3565b801561121c5780601f106111f15761010080835404028352916020019161121c565b820191906000526020600020905b8154815290600101906020018083116111ff57829003601f168201915b5050505050905090565b60003373ffffffffffffffffffffffffffffffffffffffff16600160009054906101000a9050505060011515600460019054906101000a900460ff161515141561126f57600080fd5b600073ffffffffffffffffffffffffffffffffffffffff168373ffffffffffffffffffffffffffffffffffffffff1614156112a957600080fd5b60008214156112ed576040517f08c379a00000000000000000000000000000000000000000000000000000000081526004016112e490611a85565b60405180910390fd5b600054821115611332576040517f08c379a000000000000000000000000000000000000000000000000000000000815260040161132990611d31565b60405180910390fd5b61138482600560008673ffffffffffffffffffffffffffffffffffffffff1673ffffffffffffffffffffffffffffffffffffffff168152602001908152602001600020546116f690919063ffffffff16565b600560008573ffffffffffffffffffffffffffffffffffffffff1673ffffffffffffffffffffffffffffffffffffffff168152602001908152602001600020819055506001905092915050565b60008054905090565b600060011515600460019054906101000a900460ff16151514156113fd57600080fd5b81600560003373ffffffffffffffffffffffffffffffffffffffff1673ffffffffffffffffffffffffffffffffffffffff16815260200190815260200160002054101561147f576040517f08c379a000000000000000000000000000000000000000000000000000000000815260040161147690611af1565b60405180910390fd5b600073ffffffffffffffffffffffffffffffffffffffff168373ffffffffffffffffffffffffffffffffffffffff1614156114ef576040517f08c379a00000000000000000000000000000000000000000000000000000000081526004016114e690611d9d565b60405180910390fd5b61154182600560008773ffffffffffffffffffffffffffffffffffffffff1673ffffffffffffffffffffffffffffffffffffffff168152602001908152602001600020546116f690919063ffffffff16565b600560008673ffffffffffffffffffffffffffffffffffffffff1673ffffffffffffffffffffffffffffffffffffffff168152602001908152602001600020819055506115d682600560008673ffffffffffffffffffffffffffffffffffffffff1673ffffffffffffffffffffffffffffffffffffffff168152602001908152602001600020546116ca90919063ffffffff16565b600560008573ffffffffffffffffffffffffffffffffffffffff1673ffffffffffffffffffffffffffffffffffffffff168152602001908152602001600020819055508273ffffffffffffffffffffffffffffffffffffffff168473ffffffffffffffffffffffffffffffffffffffff167fbeabacc8ffedac16e9a60acdb2ca743d80c2ebb44977a93fa8e483c74d2b35a8846040516116769190611736565b60405180910390a3600190509392505050565b60008082846116989190611dec565b905060008414806116b357508284826116b19190611e75565b145b6116c0576116bf611ea6565b5b8091505092915050565b60008082846116d99190611ed5565b9050838110156116ec576116eb611ea6565b5b8091505092915050565b60008282111561170957611708611ea6565b5b81836117159190611f2b565b905092915050565b6000819050919050565b6117308161171d565b82525050565b600060208201905061174b6000830184611727565b92915050565b600080fd5b600073ffffffffffffffffffffffffffffffffffffffff82169050919050565b600061178182611756565b9050919050565b61179181611776565b811461179c57600080fd5b50565b6000813590506117ae81611788565b92915050565b6117bd8161171d565b81146117c857600080fd5b50565b6000813590506117da816117b4565b92915050565b600080604083850312156117f7576117f6611751565b5b60006118058582860161179f565b9250506020611816858286016117cb565b9150509250929050565b60008115159050919050565b61183581611820565b82525050565b6000602082019050611850600083018461182c565b92915050565b60006020828403121561186c5761186b611751565b5b600061187a8482850161179f565b91505092915050565b600061188e82611756565b9050919050565b61189e81611883565b81146118a957600080fd5b50565b6000813590506118bb81611895565b92915050565b600080604083850312156118d8576118d7611751565b5b60006118e6858286016118ac565b92505060206118f7858286016117cb565b9150509250929050565b61190a81611776565b82525050565b60006020820190506119256000830184611901565b92915050565b600081519050919050565b600082825260208201905092915050565b60005b8381101561196557808201518184015260208101905061194a565b83811115611974576000848401525b50505050565b6000601f19601f8301169050919050565b60006119968261192b565b6119a08185611936565b93506119b0818560208601611947565b6119b98161197a565b840191505092915050565b600060208201905081810360008301526119de818461198b565b905092915050565b6000806000606084860312156119ff576119fe611751565b5b6000611a0d8682870161179f565b9350506020611a1e8682870161179f565b9250506040611a2f868287016117cb565b9150509250925092565b7f596f75206861766520696e70757420616e20696e76616c696420616d6f756e74600082015250565b6000611a6f602083611936565b9150611a7a82611a39565b602082019050919050565b60006020820190508181036000830152611a9e81611a62565b9050919050565b7f596f7520646f206e6f7420686176652073756666696369656e742066756e6473600082015250565b6000611adb602083611936565b9150611ae682611aa5565b602082019050919050565b60006020820190508181036000830152611b0a81611ace565b9050919050565b7f436f6e747261637420616c726561647920706175736564000000000000000000600082015250565b6000611b47601783611936565b9150611b5282611b11565b602082019050919050565b60006020820190508181036000830152611b7681611b3a565b9050919050565b7f4e487b7100000000000000000000000000000000000000000000000000000000600052602160045260246000fd5b7f436f6e747261637420697320616c726561647920756e70617573656400000000600082015250565b6000611be2601c83611936565b9150611bed82611bac565b602082019050919050565b60006020820190508181036000830152611c1181611bd5565b9050919050565b7f596f752063616e6e6f7420736574206974206173206f776e6572000000000000600082015250565b6000611c4e601a83611936565b9150611c5982611c18565b602082019050919050565b60006020820190508181036000830152611c7d81611c41565b9050919050565b7f4e487b7100000000000000000000000000000000000000000000000000000000600052602260045260246000fd5b60006002820490506001821680611ccb57607f821691505b60208210811415611cdf57611cde611c84565b5b50919050565b7f596f752063616e6e6f74206275726e20656e7469726520737570706c79000000600082015250565b6000611d1b601d83611936565b9150611d2682611ce5565b602082019050919050565b60006020820190508181036000830152611d4a81611d0e565b9050919050565b7f596f752063616e742073656e6420746f207a65726f206163636f756e74000000600082015250565b6000611d87601d83611936565b9150611d9282611d51565b602082019050919050565b60006020820190508181036000830152611db681611d7a565b9050919050565b7f4e487b7100000000000000000000000000000000000000000000000000000000600052601160045260246000fd5b6000611df78261171d565b9150611e028361171d565b9250817fffffffffffffffffffffffffffffffffffffffffffffffffffffffffffffffff0483118215151615611e3b57611e3a611dbd565b5b828202905092915050565b7f4e487b7100000000000000000000000000000000000000000000000000000000600052601260045260246000fd5b6000611e808261171d565b9150611e8b8361171d565b925082611e9b57611e9a611e46565b5b828204905092915050565b7f4e487b7100000000000000000000000000000000000000000000000000000000600052600160045260246000fd5b6000611ee08261171d565b9150611eeb8361171d565b9250827fffffffffffffffffffffffffffffffffffffffffffffffffffffffffffffffff03821115611f2057611f1f611dbd565b5b828201905092915050565b6000611f368261171d565b9150611f418361171d565b925082821015611f5457611f53611dbd565b5b82820390509291505056fea264697066735822122022cf7721a91b8992b566bc9feda0f8a3641b7fbfac698af1e6e0e94f7c305bdf64736f6c634300080b0033",
  "immutableReferences": {},
  "source": "pragma solidity ^0.8.11;\r\nlibrary SafeMath {\r\n  /**\r\n   * SafeMath mul function\r\n   * @dev function for safe multiply\r\n   **/\r\n  function mul(uint256 a, uint256 b) internal pure returns (uint256) {\r\n    uint256 c = a * b;\r\n    assert(a == 0 || c / a == b);\r\n    return c;\r\n  }\r\n  \r\n  /**\r\n   * SafeMath div funciotn\r\n   * @dev function for safe devide\r\n   **/\r\n  function div(uint256 a, uint256 b) internal pure returns (uint256) {\r\n    uint256 c = a / b;\r\n    return c;\r\n  }\r\n  \r\n  /**\r\n   * SafeMath sub function\r\n   * @dev function for safe subtraction\r\n   **/\r\n  function sub(uint256 a, uint256 b) internal pure returns (uint256) {\r\n    assert(b <= a);\r\n    return a - b;\r\n  }\r\n  \r\n  /**\r\n   * SafeMath add fuction \r\n   * @dev function for safe addition\r\n   **/\r\n  function add(uint256 a, uint256 b) internal pure returns (uint256) {\r\n    uint256 c = a + b;\r\n    assert(c >= a);\r\n    return c;\r\n  }\r\n}\r\n\r\ncontract MayoralToken{\r\n  //USING THE SAFEMATH LIBRARY FOR ARITHMETIC OPERATIONS\r\n    using SafeMath for uint256;\r\n\r\n    // *******VARIABLE DECLARATION***********/\r\n    uint private TotalSupply;\r\n    address private owner;\r\n    string name;\r\n    string symbol;\r\n    uint8 decimal;\r\n    bool private paused;\r\n    mapping (address => uint)balanceOf;\r\n    mapping (address => mapping(address => uint))allowed;\r\n    enum Pause{isPaused,notPaused}\r\n    Pause _PAUSE;\r\n    //*******EVENT DECLARARTION********/\r\n    event transfer(address indexed _from,address indexed _to,uint _value);\r\n    event approve(address indexed _from,address indexed _to,uint _value);\r\n    event mint(address indexed _from,uint _value);\r\n    event burn(address indexed _from,uint _value);\r\n    event PAUSE(address indexed _from);\r\n    event UNPAUSE(address indexed _from);\r\n    event increasedallowance(address indexed _from,address indexed _to, uint _value);\r\n    event decreasedallowance(address indexed _from,address indexed _to, uint _value);\r\n    event withdraw(address indexed _to,uint _value);\r\n    event renounceownership(address indexed _to);\r\n\r\n    //**********CONSTRUCTOR TO DECLARE OWNER ADDRESS  */\r\n\r\n    constructor(string memory _name,string memory _symbol,uint8 _decimal,uint _supply){\r\n      Mint(msg.sender, _supply.mul(10**_decimal));\r\n      emit mint(msg.sender, _supply);\r\n      name = _name;\r\n      symbol = _symbol;\r\n      decimal = _decimal;\r\n      owner = msg.sender;\r\n      balanceOf[owner] = TotalSupply;\r\n      _PAUSE = Pause.notPaused;\r\n\r\n    }\r\n \r\n//***********MODIFIER TO ASSIGN ADDRESS OWNER AS OWNER FOR ACCESS CONTROL */\r\n    modifier OnlyOwner(){\r\n        owner == msg.sender;\r\n        _;\r\n    }\r\n\r\n    //******FUNCTION TO PAUSE CONTRACT INCASE OF ISSUES */\r\n    function PauseContract() public OnlyOwner returns(bool success){\r\n      require(!paused,\"Contract already paused\");\r\n        paused = true;\r\n        _PAUSE = Pause.isPaused;\r\n        emit PAUSE(msg.sender);\r\n        return true;\r\n\r\n    }\r\n\r\n    //**********FUNCTION TO UNPAUSE CONTRACT */\r\n    function UnpauseContract ()public OnlyOwner returns(bool success){\r\n      require(paused = true,\"Contract is already unpaused\");\r\n        paused = false;\r\n        _PAUSE = Pause.notPaused;\r\n        emit UNPAUSE(msg.sender);\r\n        return true;\r\n    }\r\n\r\n    //****FUNCTION TO SHOW OWNER ADDRESS */\r\n\r\n    function ShowOwner()public view returns(address){\r\n      return owner;\r\n    }\r\n\r\n    //*******FUNCTION TO SHOW TOKEN NAME */\r\n\r\n    function ReturnName()public view returns(string memory){\r\n      return name;\r\n    }\r\n\r\n    //**********FUNCTION TO SHOW TOKEN SYMBOL */\r\n\r\n    function ReturnSymbol()public view returns (string memory){\r\n      return symbol;\r\n    }\r\n\r\n    //**********FUNCTION TO SHOW DECIMAL */\r\n\r\n    function ReturnDecimal()public view returns (uint){\r\n      return decimal;\r\n    }\r\n    \r\n    //**********FUNCTION TO SHOW TOKEN SUPPLY */\r\n    function ShowTotalSupply()public view returns (uint){\r\n        return TotalSupply;\r\n    }\r\n\r\n    //**********FUNCTION TO SET ALLOWANCE */\r\n    function SetAllowance(address _recieve,uint _value)OnlyOwner public returns(bool success){\r\n      require(paused != true);\r\n      require(balanceOf[msg.sender] >= _value,\"You do not have sufficient funds\");\r\n      require(_recieve != address(0));\r\n        allowed[msg.sender][_recieve] = _value;\r\n        emit approve(msg.sender,_recieve,_value);\r\n        return true;\r\n    }\r\n\r\n    //**********FUNCTION TO INCREASE ALLOWANCE */\r\n\r\n    function IncreaseAllowance(address _recieve,uint _value)OnlyOwner public returns (bool success){\r\n      require(paused != true);\r\n      require(_recieve != address(0));\r\n      require(balanceOf[msg.sender] > _value,\"You do not have sufficient funds\");\r\n      allowed[msg.sender][_recieve] = allowed[msg.sender][_recieve].add(_value);\r\n      emit increasedallowance(msg.sender, _recieve, _value);\r\n      return true;\r\n    }\r\n    \r\n     //**********FUNCTION TO DECREASE ALLOWANCE */\r\n  \r\n\r\n    function DecreaseAllowance(address _recieve,uint _value)OnlyOwner public returns (bool success){\r\n      require(paused != true);\r\n      require(_recieve != address(0));\r\n      allowed[msg.sender][_recieve] = allowed[msg.sender][_recieve].sub(_value);\r\n       emit decreasedallowance(msg.sender, _recieve, _value);\r\n      return true;\r\n    }\r\n\r\n     //**********FUNCTION TO SEND TOKENS */\r\n\r\n    function Transfer(address _from,address _to,uint _value) public returns(bool success){\r\n      require(paused != true);\r\n        require(balanceOf[msg.sender] >= _value,\"You do not have sufficient funds\");\r\n        require(_to != address(0),\"You cant send to zero account\");\r\n        balanceOf[_from] = balanceOf[_from].sub(_value);\r\n        balanceOf[_to] = balanceOf[_to].add( _value);\r\n        emit transfer(_from, _to,_value);\r\n        return true;\r\n    }\r\n\r\n     //**********FUNCTION TO CHECK BALANCE OF HOLDERS */\r\n\r\n    function CheckBalance(address _who)public view returns(uint){\r\n        return balanceOf[_who];\r\n    }\r\n\r\n     //**********FUNCTION TO MINT MORE TOKENS */\r\n\r\n    function Mint(address _from,uint _value)OnlyOwner public returns(bool success){\r\n      require(paused != true);\r\n      require(_from != address(0));\r\n        require(_value != 0,\"You have input an invalid amount\");\r\n        TotalSupply = TotalSupply.add(_value);\r\n        balanceOf[_from] = balanceOf[_from].add(_value);\r\n        return true;\r\n    }\r\n\r\n     //**********FUNCTION TO BURN TOKENS */\r\n\r\n    function Burn(address _from,uint _value)OnlyOwner public returns(bool success){\r\n      require(paused != true);\r\n      require(_from != address(0));\r\n      require(_value != 0,\"You have input an invalid amount\");\r\n      require(_value <= TotalSupply,\"You cannot burn entire supply\");\r\n      balanceOf[_from] = balanceOf[_from].sub(_value);\r\n      return true;\r\n    }\r\n\r\n    //******WITHDRAW FUNCTION INCASE OF ACCIDENTAL ETHER TRANSFER */\r\n    function Withdraw(address payable _to,uint _value)public OnlyOwner returns (bool success){\r\n      require(_value <= address(this).balance);\r\n      _to.transfer(_value);\r\n      emit withdraw(_to,_value);\r\n      return true;\r\n      \r\n    }\r\n\r\n    //***********RENOUNCE OWNERSHIP */\r\n    function Renounce(address _to)public OnlyOwner returns(bool success){\r\n      require(_to != address(0),\"You cannot set it as owner\");\r\n      owner = _to;\r\n      emit renounceownership(_to);\r\n      return true;\r\n      \r\n\r\n    }\r\n\r\n    //*******CHECK ALLOWANCE */\r\n    function CheckAllowance(address _to)public view returns(uint){\r\n      return allowed[owner][_to];\r\n    }\r\n}   ",
  "sourcePath": "C:\\Users\\MAYOWA\\Desktop\\CrowdFunding\\contracts\\MayoralToken.sol",
  "compiler": {
    "name": "solc",
    "version": "0.8.11+commit.d7f03943.Emscripten.clang"
  },
  "schemaVersion": "3.4.5",
  "updatedAt": "2022-06-11T17:32:30.499Z",
  "devdoc": {
    "kind": "dev",
    "methods": {},
    "version": 1
  },
  "userdoc": {
    "kind": "user",
    "methods": {},
    "version": 1
  }
}