{
  "contractName": "Staking",
  "abi": [
    {
      "inputs": [],
      "stateMutability": "nonpayable",
      "type": "constructor"
    },
    {
      "anonymous": false,
      "inputs": [
        {
          "indexed": true,
          "internalType": "address",
          "name": "_from",
          "type": "address"
        }
      ],
      "name": "PAUSE",
      "type": "event"
    },
    {
      "anonymous": false,
      "inputs": [
        {
          "indexed": true,
          "internalType": "address",
          "name": "_from",
          "type": "address"
        }
      ],
      "name": "UNPAUSE",
      "type": "event"
    },
    {
      "anonymous": false,
      "inputs": [
        {
          "indexed": true,
          "internalType": "address",
          "name": "_from",
          "type": "address"
        },
        {
          "indexed": true,
          "internalType": "address",
          "name": "_to",
          "type": "address"
        },
        {
          "indexed": false,
          "internalType": "uint256",
          "name": "_value",
          "type": "uint256"
        }
      ],
      "name": "approve",
      "type": "event"
    },
    {
      "anonymous": false,
      "inputs": [
        {
          "indexed": true,
          "internalType": "address",
          "name": "_from",
          "type": "address"
        },
        {
          "indexed": false,
          "internalType": "uint256",
          "name": "_value",
          "type": "uint256"
        }
      ],
      "name": "burn",
      "type": "event"
    },
    {
      "anonymous": false,
      "inputs": [
        {
          "indexed": true,
          "internalType": "address",
          "name": "_from",
          "type": "address"
        },
        {
          "indexed": true,
          "internalType": "address",
          "name": "_to",
          "type": "address"
        },
        {
          "indexed": false,
          "internalType": "uint256",
          "name": "_value",
          "type": "uint256"
        }
      ],
      "name": "decreasedallowance",
      "type": "event"
    },
    {
      "anonymous": false,
      "inputs": [
        {
          "indexed": true,
          "internalType": "address",
          "name": "_from",
          "type": "address"
        },
        {
          "indexed": true,
          "internalType": "address",
          "name": "_to",
          "type": "address"
        },
        {
          "indexed": false,
          "internalType": "uint256",
          "name": "_value",
          "type": "uint256"
        }
      ],
      "name": "increasedallowance",
      "type": "event"
    },
    {
      "anonymous": false,
      "inputs": [
        {
          "indexed": true,
          "internalType": "address",
          "name": "_from",
          "type": "address"
        },
        {
          "indexed": false,
          "internalType": "uint256",
          "name": "_value",
          "type": "uint256"
        }
      ],
      "name": "mint",
      "type": "event"
    },
    {
      "anonymous": false,
      "inputs": [
        {
          "indexed": true,
          "internalType": "address",
          "name": "_to",
          "type": "address"
        }
      ],
      "name": "renounceownership",
      "type": "event"
    },
    {
      "anonymous": false,
      "inputs": [
        {
          "indexed": true,
          "internalType": "address",
          "name": "_from",
          "type": "address"
        },
        {
          "indexed": true,
          "internalType": "address",
          "name": "_to",
          "type": "address"
        },
        {
          "indexed": false,
          "internalType": "uint256",
          "name": "_value",
          "type": "uint256"
        }
      ],
      "name": "transfer",
      "type": "event"
    },
    {
      "anonymous": false,
      "inputs": [
        {
          "indexed": true,
          "internalType": "address",
          "name": "_to",
          "type": "address"
        },
        {
          "indexed": false,
          "internalType": "uint256",
          "name": "_value",
          "type": "uint256"
        }
      ],
      "name": "withdraw",
      "type": "event"
    },
    {
      "inputs": [
        {
          "internalType": "address",
          "name": "_from",
          "type": "address"
        },
        {
          "internalType": "uint256",
          "name": "_value",
          "type": "uint256"
        }
      ],
      "name": "Burn",
      "outputs": [
        {
          "internalType": "bool",
          "name": "success",
          "type": "bool"
        }
      ],
      "stateMutability": "nonpayable",
      "type": "function"
    },
    {
      "inputs": [
        {
          "internalType": "address",
          "name": "_to",
          "type": "address"
        }
      ],
      "name": "CheckAllowance",
      "outputs": [
        {
          "internalType": "uint256",
          "name": "",
          "type": "uint256"
        }
      ],
      "stateMutability": "view",
      "type": "function",
      "constant": true
    },
    {
      "inputs": [
        {
          "internalType": "address",
          "name": "_who",
          "type": "address"
        }
      ],
      "name": "CheckBalance",
      "outputs": [
        {
          "internalType": "uint256",
          "name": "",
          "type": "uint256"
        }
      ],
      "stateMutability": "view",
      "type": "function",
      "constant": true
    },
    {
      "inputs": [
        {
          "internalType": "address",
          "name": "_recieve",
          "type": "address"
        },
        {
          "internalType": "uint256",
          "name": "_value",
          "type": "uint256"
        }
      ],
      "name": "DecreaseAllowance",
      "outputs": [
        {
          "internalType": "bool",
          "name": "success",
          "type": "bool"
        }
      ],
      "stateMutability": "nonpayable",
      "type": "function"
    },
    {
      "inputs": [
        {
          "internalType": "address",
          "name": "_recieve",
          "type": "address"
        },
        {
          "internalType": "uint256",
          "name": "_value",
          "type": "uint256"
        }
      ],
      "name": "IncreaseAllowance",
      "outputs": [
        {
          "internalType": "bool",
          "name": "success",
          "type": "bool"
        }
      ],
      "stateMutability": "nonpayable",
      "type": "function"
    },
    {
      "inputs": [
        {
          "internalType": "address",
          "name": "_from",
          "type": "address"
        },
        {
          "internalType": "uint256",
          "name": "_value",
          "type": "uint256"
        }
      ],
      "name": "Mint",
      "outputs": [
        {
          "internalType": "bool",
          "name": "success",
          "type": "bool"
        }
      ],
      "stateMutability": "nonpayable",
      "type": "function"
    },
    {
      "inputs": [],
      "name": "PauseContract",
      "outputs": [
        {
          "internalType": "bool",
          "name": "success",
          "type": "bool"
        }
      ],
      "stateMutability": "nonpayable",
      "type": "function"
    },
    {
      "inputs": [
        {
          "internalType": "address",
          "name": "_to",
          "type": "address"
        }
      ],
      "name": "Renounce",
      "outputs": [
        {
          "internalType": "bool",
          "name": "success",
          "type": "bool"
        }
      ],
      "stateMutability": "nonpayable",
      "type": "function"
    },
    {
      "inputs": [],
      "name": "ReturnDecimal",
      "outputs": [
        {
          "internalType": "uint256",
          "name": "",
          "type": "uint256"
        }
      ],
      "stateMutability": "view",
      "type": "function",
      "constant": true
    },
    {
      "inputs": [],
      "name": "ReturnName",
      "outputs": [
        {
          "internalType": "string",
          "name": "",
          "type": "string"
        }
      ],
      "stateMutability": "view",
      "type": "function",
      "constant": true
    },
    {
      "inputs": [],
      "name": "ReturnSymbol",
      "outputs": [
        {
          "internalType": "string",
          "name": "",
          "type": "string"
        }
      ],
      "stateMutability": "view",
      "type": "function",
      "constant": true
    },
    {
      "inputs": [
        {
          "internalType": "address",
          "name": "_recieve",
          "type": "address"
        },
        {
          "internalType": "uint256",
          "name": "_value",
          "type": "uint256"
        }
      ],
      "name": "SetAllowance",
      "outputs": [
        {
          "internalType": "bool",
          "name": "success",
          "type": "bool"
        }
      ],
      "stateMutability": "nonpayable",
      "type": "function"
    },
    {
      "inputs": [],
      "name": "ShowOwner",
      "outputs": [
        {
          "internalType": "address",
          "name": "",
          "type": "address"
        }
      ],
      "stateMutability": "view",
      "type": "function",
      "constant": true
    },
    {
      "inputs": [],
      "name": "ShowTotalSupply",
      "outputs": [
        {
          "internalType": "uint256",
          "name": "",
          "type": "uint256"
        }
      ],
      "stateMutability": "view",
      "type": "function",
      "constant": true
    },
    {
      "inputs": [
        {
          "internalType": "address",
          "name": "_from",
          "type": "address"
        },
        {
          "internalType": "address",
          "name": "_to",
          "type": "address"
        },
        {
          "internalType": "uint256",
          "name": "_value",
          "type": "uint256"
        }
      ],
      "name": "Transfer",
      "outputs": [
        {
          "internalType": "bool",
          "name": "success",
          "type": "bool"
        }
      ],
      "stateMutability": "nonpayable",
      "type": "function"
    },
    {
      "inputs": [],
      "name": "UnpauseContract",
      "outputs": [
        {
          "internalType": "bool",
          "name": "success",
          "type": "bool"
        }
      ],
      "stateMutability": "nonpayable",
      "type": "function"
    },
    {
      "inputs": [
        {
          "internalType": "address payable",
          "name": "_to",
          "type": "address"
        },
        {
          "internalType": "uint256",
          "name": "_value",
          "type": "uint256"
        }
      ],
      "name": "Withdraw",
      "outputs": [
        {
          "internalType": "bool",
          "name": "success",
          "type": "bool"
        }
      ],
      "stateMutability": "nonpayable",
      "type": "function"
    },
    {
      "inputs": [
        {
          "internalType": "address",
          "name": "_user",
          "type": "address"
        }
      ],
      "name": "CheckStakeholder",
      "outputs": [
        {
          "internalType": "bool",
          "name": "success",
          "type": "bool"
        }
      ],
      "stateMutability": "view",
      "type": "function",
      "constant": true
    },
    {
      "inputs": [
        {
          "internalType": "address",
          "name": "_user",
          "type": "address"
        }
      ],
      "name": "CheckStake",
      "outputs": [
        {
          "internalType": "uint256",
          "name": "",
          "type": "uint256"
        }
      ],
      "stateMutability": "view",
      "type": "function",
      "constant": true
    },
    {
      "inputs": [
        {
          "internalType": "uint256",
          "name": "_value",
          "type": "uint256"
        }
      ],
      "name": "CreateStake",
      "outputs": [
        {
          "internalType": "bool",
          "name": "success",
          "type": "bool"
        }
      ],
      "stateMutability": "nonpayable",
      "type": "function"
    },
    {
      "inputs": [
        {
          "internalType": "uint256",
          "name": "_value",
          "type": "uint256"
        }
      ],
      "name": "RemoveStake",
      "outputs": [
        {
          "internalType": "bool",
          "name": "success",
          "type": "bool"
        }
      ],
      "stateMutability": "nonpayable",
      "type": "function"
    },
    {
      "inputs": [
        {
          "internalType": "address",
          "name": "_user",
          "type": "address"
        }
      ],
      "name": "AddStakeholder",
      "outputs": [
        {
          "internalType": "bool",
          "name": "success",
          "type": "bool"
        }
      ],
      "stateMutability": "nonpayable",
      "type": "function"
    },
    {
      "inputs": [
        {
          "internalType": "address",
          "name": "_user",
          "type": "address"
        }
      ],
      "name": "RemoveStakeholder",
      "outputs": [
        {
          "internalType": "bool",
          "name": "success",
          "type": "bool"
        }
      ],
      "stateMutability": "nonpayable",
      "type": "function"
    },
    {
      "inputs": [],
      "name": "CheckTotalStakes",
      "outputs": [
        {
          "internalType": "uint256",
          "name": "",
          "type": "uint256"
        }
      ],
      "stateMutability": "view",
      "type": "function",
      "constant": true
    },
    {
      "inputs": [
        {
          "internalType": "address",
          "name": "_user",
          "type": "address"
        }
      ],
      "name": "CheckReward",
      "outputs": [
        {
          "internalType": "uint256",
          "name": "",
          "type": "uint256"
        }
      ],
      "stateMutability": "view",
      "type": "function",
      "constant": true
    },
    {
      "inputs": [],
      "name": "TotalReward",
      "outputs": [
        {
          "internalType": "uint256",
          "name": "",
          "type": "uint256"
        }
      ],
      "stateMutability": "view",
      "type": "function",
      "constant": true
    },
    {
      "inputs": [
        {
          "internalType": "address",
          "name": "_user",
          "type": "address"
        },
        {
          "internalType": "uint256",
          "name": "_value",
          "type": "uint256"
        }
      ],
      "name": "WithdrawRewards",
      "outputs": [
        {
          "internalType": "bool",
          "name": "success",
          "type": "bool"
        }
      ],
      "stateMutability": "nonpayable",
      "type": "function"
    },
    {
      "inputs": [
        {
          "internalType": "address",
          "name": "_user",
          "type": "address"
        }
      ],
      "name": "CalculateRewards",
      "outputs": [
        {
          "internalType": "uint256",
          "name": "",
          "type": "uint256"
        }
      ],
      "stateMutability": "view",
      "type": "function",
      "constant": true
    },
    {
      "inputs": [],
      "name": "DistributeRewards",
      "outputs": [],
      "stateMutability": "nonpayable",
      "type": "function"
    }
  ],
  "bytecode": "0x60806040523480156200001157600080fd5b506040518060400160405280600681526020017f4d41594f474700000000000000000000000000000000000000000000000000008152506040518060400160405280600481526020017f4d41594f0000000000000000000000000000000000000000000000000000000081525060126402540be400620000bf33620000b384600a6200009e9190620006bc565b846200026460201b620028a01790919060201c565b620002ad60201b60201c565b503373ffffffffffffffffffffffffffffffffffffffff167f40c10f19c047ae7dfa66d6312b683d2ea3dfbcb4159e96b967c5f4b0a86f2842826040516200010891906200071e565b60405180910390a283600290805190602001906200012892919062000472565b5082600390805190602001906200014192919062000472565b5081600460006101000a81548160ff021916908360ff16021790555033600160006101000a81548173ffffffffffffffffffffffffffffffffffffffff021916908373ffffffffffffffffffffffffffffffffffffffff16021790555060005460056000600160009054906101000a900473ffffffffffffffffffffffffffffffffffffffff1673ffffffffffffffffffffffffffffffffffffffff1673ffffffffffffffffffffffffffffffffffffffff168152602001908152602001600020819055506001600760006101000a81548160ff021916908360018111156200022f576200022e6200073b565b5b0217905550505050503373ffffffffffffffffffffffffffffffffffffffff16600760019054906101000a90505050620009a6565b60008082846200027591906200076a565b90506000841480620002935750828482620002919190620007fa565b145b620002a357620002a262000832565b5b8091505092915050565b60003373ffffffffffffffffffffffffffffffffffffffff16600160009054906101000a9050505060011515600460019054906101000a900460ff1615151415620002f757600080fd5b600073ffffffffffffffffffffffffffffffffffffffff168373ffffffffffffffffffffffffffffffffffffffff1614156200033257600080fd5b600082141562000379576040517f08c379a00000000000000000000000000000000000000000000000000000000081526004016200037090620008c2565b60405180910390fd5b62000395826000546200044160201b620028e11790919060201c565b600081905550620003f482600560008673ffffffffffffffffffffffffffffffffffffffff1673ffffffffffffffffffffffffffffffffffffffff168152602001908152602001600020546200044160201b620028e11790919060201c565b600560008573ffffffffffffffffffffffffffffffffffffffff1673ffffffffffffffffffffffffffffffffffffffff168152602001908152602001600020819055506001905092915050565b6000808284620004529190620008e4565b90508381101562000468576200046762000832565b5b8091505092915050565b828054620004809062000970565b90600052602060002090601f016020900481019282620004a45760008555620004f0565b82601f10620004bf57805160ff1916838001178555620004f0565b82800160010185558215620004f0579182015b82811115620004ef578251825591602001919060010190620004d2565b5b509050620004ff919062000503565b5090565b5b808211156200051e57600081600090555060010162000504565b5090565b7f4e487b7100000000000000000000000000000000000000000000000000000000600052601160045260246000fd5b60008160011c9050919050565b6000808291508390505b6001851115620005b05780860481111562000588576200058762000522565b5b6001851615620005985780820291505b8081029050620005a88562000551565b945062000568565b94509492505050565b600082620005cb57600190506200069e565b81620005db57600090506200069e565b8160018114620005f45760028114620005ff5762000635565b60019150506200069e565b60ff84111562000614576200061362000522565b5b8360020a9150848211156200062e576200062d62000522565b5b506200069e565b5060208310610133831016604e8410600b84101617156200066f5782820a90508381111562000669576200066862000522565b5b6200069e565b6200067e84848460016200055e565b9250905081840481111562000698576200069762000522565b5b81810290505b9392505050565b6000819050919050565b600060ff82169050919050565b6000620006c982620006a5565b9150620006d683620006af565b9250620007057fffffffffffffffffffffffffffffffffffffffffffffffffffffffffffffffff8484620005b9565b905092915050565b6200071881620006a5565b82525050565b60006020820190506200073560008301846200070d565b92915050565b7f4e487b7100000000000000000000000000000000000000000000000000000000600052602160045260246000fd5b60006200077782620006a5565b91506200078483620006a5565b9250817fffffffffffffffffffffffffffffffffffffffffffffffffffffffffffffffff0483118215151615620007c057620007bf62000522565b5b828202905092915050565b7f4e487b7100000000000000000000000000000000000000000000000000000000600052601260045260246000fd5b60006200080782620006a5565b91506200081483620006a5565b925082620008275762000826620007cb565b5b828204905092915050565b7f4e487b7100000000000000000000000000000000000000000000000000000000600052600160045260246000fd5b600082825260208201905092915050565b7f596f75206861766520696e70757420616e20696e76616c696420616d6f756e74600082015250565b6000620008aa60208362000861565b9150620008b78262000872565b602082019050919050565b60006020820190508181036000830152620008dd816200089b565b9050919050565b6000620008f182620006a5565b9150620008fe83620006a5565b9250827fffffffffffffffffffffffffffffffffffffffffffffffffffffffffffffffff0382111562000936576200093562000522565b5b828201905092915050565b7f4e487b7100000000000000000000000000000000000000000000000000000000600052602260045260246000fd5b600060028204905060018216806200098957607f821691505b60208210811415620009a0576200099f62000941565b5b50919050565b61371f80620009b66000396000f3fe608060405234801561001057600080fd5b50600436106101cf5760003560e01c806379d968de11610104578063a40f9b4c116100a2578063cc16f5db11610071578063cc16f5db146105ce578063dafb0d22146105fe578063ddf252ad1461061c578063ea91c26f1461064c576101cf565b8063a40f9b4c14610546578063aa1377f714610550578063aa55617914610580578063ad1bef1e146105b0576101cf565b8063884edad9116100de578063884edad9146104aa57806396ce267a146104da5780639d2e2422146104f8578063a22318ed14610516576101cf565b806379d968de1461042c578063836054f21461044a57806383995b9a1461047a576101cf565b80631c8108b1116101715780633e7279a31161014b5780633e7279a31461037e57806340229d8e146103ae5780636f1eb937146103cc5780637215b96d146103fc576101cf565b80631c8108b1146103005780632c9858991461031e5780632e4d59c41461034e576101cf565b8063107204c1116101ad578063107204c114610252578063190b9ea4146102825780631963a693146102a05780631c0c5673146102d0576101cf565b80630bf4532c146101d45780630e7f2be7146101f25780630f6798a514610222575b600080fd5b6101dc61067c565b6040516101e99190612968565b60405180910390f35b61020c60048036038101906102079190612a12565b610696565b6040516102199190612a6d565b60405180910390f35b61023c60048036038101906102379190612a12565b610897565b6040516102499190612a6d565b60405180910390f35b61026c60048036038101906102679190612a88565b610a18565b6040516102799190612a6d565b60405180910390f35b61028a610b43565b6040516102979190612968565b60405180910390f35b6102ba60048036038101906102b59190612a12565b610c07565b6040516102c79190612a6d565b60405180910390f35b6102ea60048036038101906102e59190612a88565b610e89565b6040516102f79190612968565b60405180910390f35b610308610fa3565b6040516103159190612a6d565b60405180910390f35b61033860048036038101906103339190612ab5565b6110ab565b6040516103459190612a6d565b60405180910390f35b61036860048036038101906103639190612a88565b6112a9565b6040516103759190612968565b60405180910390f35b61039860048036038101906103939190612a12565b6112f2565b6040516103a59190612a6d565b60405180910390f35b6103b66114e7565b6040516103c39190612968565b60405180910390f35b6103e660048036038101906103e19190612a88565b6115ab565b6040516103f39190612a6d565b60405180910390f35b61041660048036038101906104119190612a88565b611854565b6040516104239190612968565b60405180910390f35b6104346118fc565b6040516104419190612a6d565b60405180910390f35b610464600480360381019061045f9190612a88565b611a0d565b6040516104719190612968565b60405180910390f35b610494600480360381019061048f9190612a88565b611aa5565b6040516104a19190612a6d565b60405180910390f35b6104c460048036038101906104bf9190612b20565b611bca565b6040516104d19190612a6d565b60405180910390f35b6104e2611c9e565b6040516104ef9190612b6f565b60405180910390f35b610500611cc8565b60405161050d9190612c23565b60405180910390f35b610530600480360381019061052b9190612ab5565b611d5a565b60405161053d9190612a6d565b60405180910390f35b61054e611fac565b005b61056a60048036038101906105659190612a12565b6120c3565b6040516105779190612a6d565b60405180910390f35b61059a60048036038101906105959190612a88565b6122b7565b6040516105a79190612a6d565b60405180910390f35b6105b8612362565b6040516105c59190612c23565b60405180910390f35b6105e860048036038101906105e39190612a12565b6123f4565b6040516105f59190612a6d565b60405180910390f35b61060661259f565b6040516106139190612968565b60405180910390f35b61063660048036038101906106319190612c45565b6125a8565b6040516106439190612a6d565b60405180910390f35b61066660048036038101906106619190612a88565b612857565b6040516106739190612968565b60405180910390f35b6000600460009054906101000a900460ff1660ff16905090565b60003373ffffffffffffffffffffffffffffffffffffffff16600160009054906101000a9050505060011515600460019054906101000a900460ff16151514156106df57600080fd5b600073ffffffffffffffffffffffffffffffffffffffff168373ffffffffffffffffffffffffffffffffffffffff16141561071957600080fd5b6107a882600660003373ffffffffffffffffffffffffffffffffffffffff1673ffffffffffffffffffffffffffffffffffffffff16815260200190815260200160002060008673ffffffffffffffffffffffffffffffffffffffff1673ffffffffffffffffffffffffffffffffffffffff1681526020019081526020016000205461290d90919063ffffffff16565b600660003373ffffffffffffffffffffffffffffffffffffffff1673ffffffffffffffffffffffffffffffffffffffff16815260200190815260200160002060008573ffffffffffffffffffffffffffffffffffffffff1673ffffffffffffffffffffffffffffffffffffffff168152602001908152602001600020819055508273ffffffffffffffffffffffffffffffffffffffff163373ffffffffffffffffffffffffffffffffffffffff167fbcbc2f27353563a7798372a0dfb7f4fc97a4424532d94ac5727c2b6d8445ba11846040516108859190612968565b60405180910390a36001905092915050565b60003373ffffffffffffffffffffffffffffffffffffffff16600160009054906101000a9050505060011515600460019054906101000a900460ff16151514156108e057600080fd5b600073ffffffffffffffffffffffffffffffffffffffff168373ffffffffffffffffffffffffffffffffffffffff16141561091a57600080fd5b600082141561095e576040517f08c379a000000000000000000000000000000000000000000000000000000000815260040161095590612ce4565b60405180910390fd5b610973826000546128e190919063ffffffff16565b6000819055506109cb82600560008673ffffffffffffffffffffffffffffffffffffffff1673ffffffffffffffffffffffffffffffffffffffff168152602001908152602001600020546128e190919063ffffffff16565b600560008573ffffffffffffffffffffffffffffffffffffffff1673ffffffffffffffffffffffffffffffffffffffff168152602001908152602001600020819055506001905092915050565b60008173ffffffffffffffffffffffffffffffffffffffff163373ffffffffffffffffffffffffffffffffffffffff1614610a88576040517f08c379a0000000000000000000000000000000000000000000000000000000008152600401610a7f90612d50565b60405180910390fd5b60001515610a95836122b7565b151514610ad7576040517f08c379a0000000000000000000000000000000000000000000000000000000008152600401610ace90612dbc565b60405180910390fd5b6008829080600181540180825580915050600190039060005260206000200160009091909190916101000a81548173ffffffffffffffffffffffffffffffffffffffff021916908373ffffffffffffffffffffffffffffffffffffffff16021790555060019050919050565b6000806000905060005b600880549050811015610bff57610bea6009600060088481548110610b7557610b74612ddc565b5b9060005260206000200160009054906101000a900473ffffffffffffffffffffffffffffffffffffffff1673ffffffffffffffffffffffffffffffffffffffff1673ffffffffffffffffffffffffffffffffffffffff16815260200190815260200160002054836128e190919063ffffffff16565b91508080610bf790612e3a565b915050610b4d565b508091505090565b60003373ffffffffffffffffffffffffffffffffffffffff16600160009054906101000a9050505060011515600460019054906101000a900460ff1615151415610c5057600080fd5b600073ffffffffffffffffffffffffffffffffffffffff168373ffffffffffffffffffffffffffffffffffffffff161415610c8a57600080fd5b81600560003373ffffffffffffffffffffffffffffffffffffffff1673ffffffffffffffffffffffffffffffffffffffff1681526020019081526020016000205411610d0b576040517f08c379a0000000000000000000000000000000000000000000000000000000008152600401610d0290612ecf565b60405180910390fd5b610d9a82600660003373ffffffffffffffffffffffffffffffffffffffff1673ffffffffffffffffffffffffffffffffffffffff16815260200190815260200160002060008673ffffffffffffffffffffffffffffffffffffffff1673ffffffffffffffffffffffffffffffffffffffff168152602001908152602001600020546128e190919063ffffffff16565b600660003373ffffffffffffffffffffffffffffffffffffffff1673ffffffffffffffffffffffffffffffffffffffff16815260200190815260200160002060008573ffffffffffffffffffffffffffffffffffffffff1673ffffffffffffffffffffffffffffffffffffffff168152602001908152602001600020819055508273ffffffffffffffffffffffffffffffffffffffff163373ffffffffffffffffffffffffffffffffffffffff167fe43a4c0c8b584625b0f915e64cd33950433cbbc5e42b3335ca72d313be300aec84604051610e779190612968565b60405180910390a36001905092915050565b60008173ffffffffffffffffffffffffffffffffffffffff163373ffffffffffffffffffffffffffffffffffffffff1614610ef9576040517f08c379a0000000000000000000000000000000000000000000000000000000008152600401610ef090612d50565b60405180910390fd5b60011515610f06836122b7565b151514610f48576040517f08c379a0000000000000000000000000000000000000000000000000000000008152600401610f3f90612f3b565b60405180910390fd5b610f9c6101f4600960008573ffffffffffffffffffffffffffffffffffffffff1673ffffffffffffffffffffffffffffffffffffffff1681526020019081526020016000205461293490919063ffffffff16565b9050919050565b60003373ffffffffffffffffffffffffffffffffffffffff16600160009054906101000a90505050600460019054906101000a900460ff161561101b576040517f08c379a000000000000000000000000000000000000000000000000000000000815260040161101290612fa7565b60405180910390fd5b6001600460016101000a81548160ff0219169083151502179055506000600760006101000a81548160ff0219169083600181111561105c5761105b612fc7565b5b02179055503373ffffffffffffffffffffffffffffffffffffffff167f1cfe193b29391a1d2f2f7fd0c264c837840c1cdee88a7b789c882035829b252560405160405180910390a26001905090565b6000600115156110ba336122b7565b1515146110fc576040517f08c379a00000000000000000000000000000000000000000000000000000000081526004016110f390612f3b565b60405180910390fd5b81600560003373ffffffffffffffffffffffffffffffffffffffff1673ffffffffffffffffffffffffffffffffffffffff16815260200190815260200160002054101561117e576040517f08c379a000000000000000000000000000000000000000000000000000000000815260040161117590613042565b60405180910390fd5b6000600a60003373ffffffffffffffffffffffffffffffffffffffff1673ffffffffffffffffffffffffffffffffffffffff1681526020019081526020016000205414611200576040517f08c379a00000000000000000000000000000000000000000000000000000000081526004016111f7906130ae565b60405180910390fd5b61120a33836123f4565b5061125d82600960003373ffffffffffffffffffffffffffffffffffffffff1673ffffffffffffffffffffffffffffffffffffffff168152602001908152602001600020546128e190919063ffffffff16565b600960003373ffffffffffffffffffffffffffffffffffffffff1673ffffffffffffffffffffffffffffffffffffffff1681526020019081526020016000208190555060019050919050565b6000600560008373ffffffffffffffffffffffffffffffffffffffff1673ffffffffffffffffffffffffffffffffffffffff168152602001908152602001600020549050919050565b60003373ffffffffffffffffffffffffffffffffffffffff16600160009054906101000a9050505060011515600460019054906101000a900460ff161515141561133b57600080fd5b81600560003373ffffffffffffffffffffffffffffffffffffffff1673ffffffffffffffffffffffffffffffffffffffff1681526020019081526020016000205410156113bd576040517f08c379a00000000000000000000000000000000000000000000000000000000081526004016113b490612ecf565b60405180910390fd5b600073ffffffffffffffffffffffffffffffffffffffff168373ffffffffffffffffffffffffffffffffffffffff1614156113f757600080fd5b81600660003373ffffffffffffffffffffffffffffffffffffffff1673ffffffffffffffffffffffffffffffffffffffff16815260200190815260200160002060008573ffffffffffffffffffffffffffffffffffffffff1673ffffffffffffffffffffffffffffffffffffffff168152602001908152602001600020819055508273ffffffffffffffffffffffffffffffffffffffff163373ffffffffffffffffffffffffffffffffffffffff167fe1f21c67180317619fcafa578cb44275002011f9ad81f61220c62be2c4415336846040516114d59190612968565b60405180910390a36001905092915050565b6000806000905060005b6008805490508110156115a35761158e600a60006008848154811061151957611518612ddc565b5b9060005260206000200160009054906101000a900473ffffffffffffffffffffffffffffffffffffffff1673ffffffffffffffffffffffffffffffffffffffff1673ffffffffffffffffffffffffffffffffffffffff16815260200190815260200160002054836128e190919063ffffffff16565b9150808061159b90612e3a565b9150506114f1565b508091505090565b600080600a60008473ffffffffffffffffffffffffffffffffffffffff1673ffffffffffffffffffffffffffffffffffffffff168152602001908152602001600020541461162e576040517f08c379a00000000000000000000000000000000000000000000000000000000081526004016116259061311a565b60405180910390fd5b8173ffffffffffffffffffffffffffffffffffffffff163373ffffffffffffffffffffffffffffffffffffffff161461169c576040517f08c379a000000000000000000000000000000000000000000000000000000000815260040161169390612d50565b60405180910390fd5b600115156116a9836122b7565b1515146116eb576040517f08c379a00000000000000000000000000000000000000000000000000000000081526004016116e290612f3b565b60405180910390fd5b60005b60088054905081101561184a576000600960008573ffffffffffffffffffffffffffffffffffffffff1673ffffffffffffffffffffffffffffffffffffffff168152602001908152602001600020541461177d576040517f08c379a0000000000000000000000000000000000000000000000000000000008152600401611774906131ac565b60405180910390fd5b6008818154811061179157611790612ddc565b5b9060005260206000200160009054906101000a900473ffffffffffffffffffffffffffffffffffffffff1673ffffffffffffffffffffffffffffffffffffffff168373ffffffffffffffffffffffffffffffffffffffff161415611837576008805480611801576118006131cc565b5b6001900381819060005260206000200160006101000a81549073ffffffffffffffffffffffffffffffffffffffff021916905590555b808061184290612e3a565b9150506116ee565b5060019050919050565b600060066000600160009054906101000a900473ffffffffffffffffffffffffffffffffffffffff1673ffffffffffffffffffffffffffffffffffffffff1673ffffffffffffffffffffffffffffffffffffffff16815260200190815260200160002060008373ffffffffffffffffffffffffffffffffffffffff1673ffffffffffffffffffffffffffffffffffffffff168152602001908152602001600020549050919050565b60003373ffffffffffffffffffffffffffffffffffffffff16600160009054906101000a905050506001600460016101000a81548160ff021916908315150217905561197d576040517f08c379a000000000000000000000000000000000000000000000000000000000815260040161197490613247565b60405180910390fd5b6000600460016101000a81548160ff0219169083151502179055506001600760006101000a81548160ff021916908360018111156119be576119bd612fc7565b5b02179055503373ffffffffffffffffffffffffffffffffffffffff167fe29de528965d2fe2a06aafe325d5754d834348a4703d1a8366ba761643957bb360405160405180910390a26001905090565b600060011515611a1c836122b7565b151514611a5e576040517f08c379a0000000000000000000000000000000000000000000000000000000008152600401611a55906132d9565b60405180910390fd5b600a60008373ffffffffffffffffffffffffffffffffffffffff1673ffffffffffffffffffffffffffffffffffffffff168152602001908152602001600020549050919050565b60003373ffffffffffffffffffffffffffffffffffffffff16600160009054906101000a90505050600073ffffffffffffffffffffffffffffffffffffffff168273ffffffffffffffffffffffffffffffffffffffff161415611b3d576040517f08c379a0000000000000000000000000000000000000000000000000000000008152600401611b3490613345565b60405180910390fd5b81600160006101000a81548173ffffffffffffffffffffffffffffffffffffffff021916908373ffffffffffffffffffffffffffffffffffffffff1602179055508173ffffffffffffffffffffffffffffffffffffffff167f11bd3ae03dffc45908a76d712d26ce2ed3389fd9a74b3e1468fcaa88557fb37360405160405180910390a260019050919050565b60003373ffffffffffffffffffffffffffffffffffffffff16600160009054906101000a9050505047821115611bff57600080fd5b8273ffffffffffffffffffffffffffffffffffffffff166108fc839081150290604051600060405180830381858888f19350505050158015611c45573d6000803e3d6000fd5b508273ffffffffffffffffffffffffffffffffffffffff167ff3fef3a3f44f9c277339b67d54f015748bd8d6b77a985b0ab6e71126b018c34a83604051611c8c9190612968565b60405180910390a26001905092915050565b6000600160009054906101000a900473ffffffffffffffffffffffffffffffffffffffff16905090565b606060038054611cd790613394565b80601f0160208091040260200160405190810160405280929190818152602001828054611d0390613394565b8015611d505780601f10611d2557610100808354040283529160200191611d50565b820191906000526020600020905b815481529060010190602001808311611d3357829003601f168201915b5050505050905090565b600060011515611d69336122b7565b151514611dab576040517f08c379a0000000000000000000000000000000000000000000000000000000008152600401611da290612f3b565b60405180910390fd5b6000600960003373ffffffffffffffffffffffffffffffffffffffff1673ffffffffffffffffffffffffffffffffffffffff168152602001908152602001600020541415611e2e576040517f08c379a0000000000000000000000000000000000000000000000000000000008152600401611e2590613412565b60405180910390fd5b6000600a60003373ffffffffffffffffffffffffffffffffffffffff1673ffffffffffffffffffffffffffffffffffffffff1681526020019081526020016000205414611eb0576040517f08c379a0000000000000000000000000000000000000000000000000000000008152600401611ea7906130ae565b60405180910390fd5b611f0282600960003373ffffffffffffffffffffffffffffffffffffffff1673ffffffffffffffffffffffffffffffffffffffff1681526020019081526020016000205461290d90919063ffffffff16565b600960003373ffffffffffffffffffffffffffffffffffffffff1673ffffffffffffffffffffffffffffffffffffffff168152602001908152602001600020819055506000600960003373ffffffffffffffffffffffffffffffffffffffff1673ffffffffffffffffffffffffffffffffffffffff168152602001908152602001600020541415611f9857611f96336115ab565b505b611fa23383610897565b5060019050919050565b6000805b6008805490508110156120b457600060088281548110611fd357611fd2612ddc565b5b9060005260206000200160009054906101000a900473ffffffffffffffffffffffffffffffffffffffff16905061200981610e89565b925061205d83600a60008473ffffffffffffffffffffffffffffffffffffffff1673ffffffffffffffffffffffffffffffffffffffff168152602001908152602001600020546128e190919063ffffffff16565b600a60008373ffffffffffffffffffffffffffffffffffffffff1673ffffffffffffffffffffffffffffffffffffffff168152602001908152602001600020819055505080806120ac90612e3a565b915050611fb0565b506120bf33826120c3565b5050565b60008273ffffffffffffffffffffffffffffffffffffffff163373ffffffffffffffffffffffffffffffffffffffff1614612133576040517f08c379a000000000000000000000000000000000000000000000000000000000815260040161212a90612d50565b60405180910390fd5b60011515612140846122b7565b151514612182576040517f08c379a000000000000000000000000000000000000000000000000000000000815260040161217990612f3b565b60405180910390fd5b600a60008473ffffffffffffffffffffffffffffffffffffffff1673ffffffffffffffffffffffffffffffffffffffff168152602001908152602001600020548214612203576040517f08c379a00000000000000000000000000000000000000000000000000000000081526004016121fa9061347e565b60405180910390fd5b61225582600a60008673ffffffffffffffffffffffffffffffffffffffff1673ffffffffffffffffffffffffffffffffffffffff1681526020019081526020016000205461290d90919063ffffffff16565b600a60008573ffffffffffffffffffffffffffffffffffffffff1673ffffffffffffffffffffffffffffffffffffffff168152602001908152602001600020819055506122a1836115ab565b506122ac8383610897565b506001905092915050565b600080600090505b60088054905081101561235b57600881815481106122e0576122df612ddc565b5b9060005260206000200160009054906101000a900473ffffffffffffffffffffffffffffffffffffffff1673ffffffffffffffffffffffffffffffffffffffff168373ffffffffffffffffffffffffffffffffffffffff16141561234857600191505061235d565b808061235390612e3a565b9150506122bf565b505b919050565b60606002805461237190613394565b80601f016020809104026020016040519081016040528092919081815260200182805461239d90613394565b80156123ea5780601f106123bf576101008083540402835291602001916123ea565b820191906000526020600020905b8154815290600101906020018083116123cd57829003601f168201915b5050505050905090565b60003373ffffffffffffffffffffffffffffffffffffffff16600160009054906101000a9050505060011515600460019054906101000a900460ff161515141561243d57600080fd5b600073ffffffffffffffffffffffffffffffffffffffff168373ffffffffffffffffffffffffffffffffffffffff16141561247757600080fd5b60008214156124bb576040517f08c379a00000000000000000000000000000000000000000000000000000000081526004016124b290612ce4565b60405180910390fd5b600054821115612500576040517f08c379a00000000000000000000000000000000000000000000000000000000081526004016124f7906134ea565b60405180910390fd5b61255282600560008673ffffffffffffffffffffffffffffffffffffffff1673ffffffffffffffffffffffffffffffffffffffff1681526020019081526020016000205461290d90919063ffffffff16565b600560008573ffffffffffffffffffffffffffffffffffffffff1673ffffffffffffffffffffffffffffffffffffffff168152602001908152602001600020819055506001905092915050565b60008054905090565b600060011515600460019054906101000a900460ff16151514156125cb57600080fd5b81600560003373ffffffffffffffffffffffffffffffffffffffff1673ffffffffffffffffffffffffffffffffffffffff16815260200190815260200160002054101561264d576040517f08c379a000000000000000000000000000000000000000000000000000000000815260040161264490612ecf565b60405180910390fd5b600073ffffffffffffffffffffffffffffffffffffffff168373ffffffffffffffffffffffffffffffffffffffff1614156126bd576040517f08c379a00000000000000000000000000000000000000000000000000000000081526004016126b490613556565b60405180910390fd5b61270f82600560008773ffffffffffffffffffffffffffffffffffffffff1673ffffffffffffffffffffffffffffffffffffffff1681526020019081526020016000205461290d90919063ffffffff16565b600560008673ffffffffffffffffffffffffffffffffffffffff1673ffffffffffffffffffffffffffffffffffffffff168152602001908152602001600020819055506127a482600560008673ffffffffffffffffffffffffffffffffffffffff1673ffffffffffffffffffffffffffffffffffffffff168152602001908152602001600020546128e190919063ffffffff16565b600560008573ffffffffffffffffffffffffffffffffffffffff1673ffffffffffffffffffffffffffffffffffffffff168152602001908152602001600020819055508273ffffffffffffffffffffffffffffffffffffffff168473ffffffffffffffffffffffffffffffffffffffff167fbeabacc8ffedac16e9a60acdb2ca743d80c2ebb44977a93fa8e483c74d2b35a8846040516128449190612968565b60405180910390a3600190509392505050565b6000600960008373ffffffffffffffffffffffffffffffffffffffff1673ffffffffffffffffffffffffffffffffffffffff168152602001908152602001600020549050919050565b60008082846128af9190613576565b905060008414806128ca57508284826128c891906135ff565b145b6128d7576128d6613630565b5b8091505092915050565b60008082846128f0919061365f565b90508381101561290357612902613630565b5b8091505092915050565b6000828211156129205761291f613630565b5b818361292c91906136b5565b905092915050565b600080828461294391906135ff565b90508091505092915050565b6000819050919050565b6129628161294f565b82525050565b600060208201905061297d6000830184612959565b92915050565b600080fd5b600073ffffffffffffffffffffffffffffffffffffffff82169050919050565b60006129b382612988565b9050919050565b6129c3816129a8565b81146129ce57600080fd5b50565b6000813590506129e0816129ba565b92915050565b6129ef8161294f565b81146129fa57600080fd5b50565b600081359050612a0c816129e6565b92915050565b60008060408385031215612a2957612a28612983565b5b6000612a37858286016129d1565b9250506020612a48858286016129fd565b9150509250929050565b60008115159050919050565b612a6781612a52565b82525050565b6000602082019050612a826000830184612a5e565b92915050565b600060208284031215612a9e57612a9d612983565b5b6000612aac848285016129d1565b91505092915050565b600060208284031215612acb57612aca612983565b5b6000612ad9848285016129fd565b91505092915050565b6000612aed82612988565b9050919050565b612afd81612ae2565b8114612b0857600080fd5b50565b600081359050612b1a81612af4565b92915050565b60008060408385031215612b3757612b36612983565b5b6000612b4585828601612b0b565b9250506020612b56858286016129fd565b9150509250929050565b612b69816129a8565b82525050565b6000602082019050612b846000830184612b60565b92915050565b600081519050919050565b600082825260208201905092915050565b60005b83811015612bc4578082015181840152602081019050612ba9565b83811115612bd3576000848401525b50505050565b6000601f19601f8301169050919050565b6000612bf582612b8a565b612bff8185612b95565b9350612c0f818560208601612ba6565b612c1881612bd9565b840191505092915050565b60006020820190508181036000830152612c3d8184612bea565b905092915050565b600080600060608486031215612c5e57612c5d612983565b5b6000612c6c868287016129d1565b9350506020612c7d868287016129d1565b9250506040612c8e868287016129fd565b9150509250925092565b7f596f75206861766520696e70757420616e20696e76616c696420616d6f756e74600082015250565b6000612cce602083612b95565b9150612cd982612c98565b602082019050919050565b60006020820190508181036000830152612cfd81612cc1565b9050919050565b7f4e6f742055736572000000000000000000000000000000000000000000000000600082015250565b6000612d3a600883612b95565b9150612d4582612d04565b602082019050919050565b60006020820190508181036000830152612d6981612d2d565b9050919050565b7f416c72656164792061205374616b65686f6c6465720000000000000000000000600082015250565b6000612da6601583612b95565b9150612db182612d70565b602082019050919050565b60006020820190508181036000830152612dd581612d99565b9050919050565b7f4e487b7100000000000000000000000000000000000000000000000000000000600052603260045260246000fd5b7f4e487b7100000000000000000000000000000000000000000000000000000000600052601160045260246000fd5b6000612e458261294f565b91507fffffffffffffffffffffffffffffffffffffffffffffffffffffffffffffffff821415612e7857612e77612e0b565b5b600182019050919050565b7f596f7520646f206e6f7420686176652073756666696369656e742066756e6473600082015250565b6000612eb9602083612b95565b9150612ec482612e83565b602082019050919050565b60006020820190508181036000830152612ee881612eac565b9050919050565b7f4e6f742061205374616b65686f6c646572000000000000000000000000000000600082015250565b6000612f25601183612b95565b9150612f3082612eef565b602082019050919050565b60006020820190508181036000830152612f5481612f18565b9050919050565b7f436f6e747261637420616c726561647920706175736564000000000000000000600082015250565b6000612f91601783612b95565b9150612f9c82612f5b565b602082019050919050565b60006020820190508181036000830152612fc081612f84565b9050919050565b7f4e487b7100000000000000000000000000000000000000000000000000000000600052602160045260246000fd5b7f496e73756666696369656e742046756e64730000000000000000000000000000600082015250565b600061302c601283612b95565b915061303782612ff6565b602082019050919050565b6000602082019050818103600083015261305b8161301f565b9050919050565b7f52656d6f766520796f7572205265776172647320666972737400000000000000600082015250565b6000613098601983612b95565b91506130a382613062565b602082019050919050565b600060208201905081810360008301526130c78161308b565b9050919050565b7f52656d6f766520596f7572205265776172642046697273740000000000000000600082015250565b6000613104601883612b95565b915061310f826130ce565b602082019050919050565b60006020820190508181036000830152613133816130f7565b9050919050565b7f596f752063616e6e6f742072656d6f766520616e20616374697665207374616b60008201527f6500000000000000000000000000000000000000000000000000000000000000602082015250565b6000613196602183612b95565b91506131a18261313a565b604082019050919050565b600060208201905081810360008301526131c581613189565b9050919050565b7f4e487b7100000000000000000000000000000000000000000000000000000000600052603160045260246000fd5b7f436f6e747261637420697320616c726561647920756e70617573656400000000600082015250565b6000613231601c83612b95565b915061323c826131fb565b602082019050919050565b6000602082019050818103600083015261326081613224565b9050919050565b7f4f6e6c79205374616b65686f6c646572732063616e20636865636b207265776160008201527f7264730000000000000000000000000000000000000000000000000000000000602082015250565b60006132c3602383612b95565b91506132ce82613267565b604082019050919050565b600060208201905081810360008301526132f2816132b6565b9050919050565b7f596f752063616e6e6f7420736574206974206173206f776e6572000000000000600082015250565b600061332f601a83612b95565b915061333a826132f9565b602082019050919050565b6000602082019050818103600083015261335e81613322565b9050919050565b7f4e487b7100000000000000000000000000000000000000000000000000000000600052602260045260246000fd5b600060028204905060018216806133ac57607f821691505b602082108114156133c0576133bf613365565b5b50919050565b7f596f75206d75737420686176652061205374616b650000000000000000000000600082015250565b60006133fc601583612b95565b9150613407826133c6565b602082019050919050565b6000602082019050818103600083015261342b816133ef565b9050919050565b7f576974686472617720656e746972652072657761726400000000000000000000600082015250565b6000613468601683612b95565b915061347382613432565b602082019050919050565b600060208201905081810360008301526134978161345b565b9050919050565b7f596f752063616e6e6f74206275726e20656e7469726520737570706c79000000600082015250565b60006134d4601d83612b95565b91506134df8261349e565b602082019050919050565b60006020820190508181036000830152613503816134c7565b9050919050565b7f596f752063616e742073656e6420746f207a65726f206163636f756e74000000600082015250565b6000613540601d83612b95565b915061354b8261350a565b602082019050919050565b6000602082019050818103600083015261356f81613533565b9050919050565b60006135818261294f565b915061358c8361294f565b9250817fffffffffffffffffffffffffffffffffffffffffffffffffffffffffffffffff04831182151516156135c5576135c4612e0b565b5b828202905092915050565b7f4e487b7100000000000000000000000000000000000000000000000000000000600052601260045260246000fd5b600061360a8261294f565b91506136158361294f565b925082613625576136246135d0565b5b828204905092915050565b7f4e487b7100000000000000000000000000000000000000000000000000000000600052600160045260246000fd5b600061366a8261294f565b91506136758361294f565b9250827fffffffffffffffffffffffffffffffffffffffffffffffffffffffffffffffff038211156136aa576136a9612e0b565b5b828201905092915050565b60006136c08261294f565b91506136cb8361294f565b9250828210156136de576136dd612e0b565b5b82820390509291505056fea2646970667358221220d88d1152b6f7dcf344c1c25cce676926e360da2c62d24a745b4b47dd81b1b17964736f6c634300080b0033",
  "immutableReferences": {},
  "source": "pragma solidity ^0.8.11;\r\nimport \"./MayoralToken.sol\";\r\ncontract Staking is MayoralToken{\r\n  using SafeMath for uint;\r\n  address owner;\r\n  address[]Stakeholders;\r\n  mapping(address => uint)private stakes;\r\n  mapping(address => uint)private rewards;\r\n  constructor()\r\n  MayoralToken(\"MAYOGG\",\"MAYO\",18,10000000000)\r\n  {\r\n    \r\n    owner == msg.sender;\r\n\r\n  } \r\n   \r\n  \r\n\r\n  function CheckStakeholder(address _user)public view returns(bool success){\r\n    for (uint i = 0; i<Stakeholders.length;i++){\r\n      if (_user == Stakeholders[i])\r\n      return true;\r\n    }\r\n\r\n  }\r\n  \r\n  function CheckStake(address _user)public view returns (uint){\r\n    return stakes[_user];\r\n  }\r\n\r\n  function CreateStake(uint _value)public returns (bool success){\r\n    require(CheckStakeholder(msg.sender) == true,\"Not a Stakeholder\");\r\n    require (balanceOf[msg.sender] >= _value,\"Insufficient Funds\");\r\n    require(rewards[msg.sender] == 0 ,\"Remove your Rewards first\");\r\n    Burn(msg.sender, _value);\r\n    stakes[msg.sender] = stakes[msg.sender].add(_value);\r\n    return true;\r\n  }\r\n\r\n  function RemoveStake(uint _value)public  returns(bool success){\r\n    require(CheckStakeholder(msg.sender) == true,\"Not a Stakeholder\");\r\n    require(stakes[msg.sender] != 0,\"You must have a Stake\");\r\n    require(rewards[msg.sender] == 0 ,\"Remove your Rewards first\");\r\n    stakes[msg.sender] = stakes[msg.sender].sub(_value);\r\n   if (stakes[msg.sender] == 0){\r\n       RemoveStakeholder(msg.sender);\r\n   }\r\n     Mint(msg.sender, _value);\r\n    return true;\r\n  }\r\n\r\n  function AddStakeholder(address _user) public  returns (bool success){\r\n    require(msg.sender == _user,\"Not User\");\r\n    require(CheckStakeholder(_user) == false,\"Already a Stakeholder\");\r\n    Stakeholders.push(_user);\r\n    return true;\r\n  }\r\n\r\n  function RemoveStakeholder(address _user) public  returns (bool success){\r\n    require(rewards[_user] == 0,\"Remove Your Reward First\");\r\n      require(msg.sender == _user,\"Not User\");\r\n    require(CheckStakeholder(_user) == true,\"Not a Stakeholder\");\r\n       for (uint i = 0; i<Stakeholders.length;i++){\r\n         require(stakes[_user] == 0,\"You cannot remove an active stake\");\r\n      if (_user == Stakeholders[i]){\r\n      Stakeholders.pop();\r\n      }\r\n       }\r\n       return true;\r\n  }\r\n\r\n\r\n  function CheckTotalStakes()public view  returns(uint){\r\n    uint TotalStakes = 0;\r\n    for(uint i = 0; i<Stakeholders.length;i++){\r\n      TotalStakes = TotalStakes.add(stakes[Stakeholders[i]]);\r\n    }\r\n    return TotalStakes;\r\n  }\r\n\r\n  function CheckReward(address _user) public view returns (uint){\r\n    require(CheckStakeholder(_user) == true,\"Only Stakeholders can check rewards\");\r\n     return rewards[_user];\r\n  }\r\n\r\n \r\n\r\n  function TotalReward()public view returns (uint){\r\n    uint totalRewards = 0;\r\n     for(uint i = 0; i<Stakeholders.length;i++){\r\n      totalRewards = totalRewards.add(rewards[Stakeholders[i]]);\r\n    }\r\n    return totalRewards;\r\n  }\r\n\r\n  function WithdrawRewards(address _user,uint _value)public  returns(bool success){\r\n    require(msg.sender == _user,\"Not User\");\r\n     require(CheckStakeholder(_user) == true,\"Not a Stakeholder\");\r\n     require(_value == rewards[_user],\"Withdraw entire reward\");\r\n    rewards[_user] = rewards[_user].sub(_value);\r\n    RemoveStakeholder(_user);\r\n    Mint(_user,_value);\r\n    return true;\r\n  }\r\n  \r\n  function CalculateRewards(address _user)public view returns(uint){\r\n     require(msg.sender == _user,\"Not User\");\r\n    require(CheckStakeholder(_user) == true,\"Not a Stakeholder\");\r\n    return stakes[_user].div(500);\r\n  }\r\n  \r\n\r\n   function DistributeRewards()public \r\n    {\r\n      uint reward = 0;\r\n        for (uint i = 0; i < Stakeholders.length; i++){\r\n            address stakeholder = Stakeholders[i];\r\n            reward = CalculateRewards(stakeholder);\r\n            rewards[stakeholder] = rewards[stakeholder].add(reward);\r\n        }\r\n        WithdrawRewards(msg.sender, reward);\r\n    }\r\n  \r\n\r\n\r\n \r\n \r\n\r\n\r\n\r\n\r\n}\r\n",
  "sourcePath": "C:\\Users\\MAYOWA\\Desktop\\CrowdFunding\\contracts\\Staking.sol",
  "compiler": {
    "name": "solc",
    "version": "0.8.11+commit.d7f03943.Emscripten.clang"
  },
  "schemaVersion": "3.4.5",
  "updatedAt": "2022-06-11T17:32:52.232Z",
  "networkType": "ethereum",
  "devdoc": {
    "kind": "dev",
    "methods": {},
    "version": 1
  },
  "userdoc": {
    "kind": "user",
    "methods": {},
    "version": 1
  }
}